:100000000C948F000C9400000C9400000C940000E1
:100010000C9400000C9400000C9400000C94000060
:100020000C9400000C9400000C9400000C945900F7
:100030000C9400000C9400000C9400000C94000040
:100040000C9400000C9400000C9400000C94000030
:040050000C9400000C
:10011E00BFE5BDBFB8E0BEBF0E940101BFE0BABBE4
:10012E00B0E0BBBBBFEFB4BBB0E0B5BBB0E0B093CB
:10013E007E00B0937F00B0E0B0937D00B1E0B0934D
:10014E007C00B3E0B3BFBFB7B068BFBFB9B7B16093
:10015E00B9BF209160003091610000E010E00217FD
:10016E001307CCF54AE050E0009160001091610059
:10017E006ADF8C019801220F331F08E610E0F901A7
:10018E00E00FF11F0191119100937E0010937F00FB
:10019E004AE050E0009160001091610054DF8B0145
:1001AE00009360001093610024E630E0009162003D
:1001BE0010916300F801E20FF31F00917E0000839F
:1001CE0000916200109163000F5F1F4F0093620059
:0801DE0010936300BECFFFCFB8
:0A00A80005900D920197E1F708950D
:10005400C801BA0197FB092E07260AD077FD04D000
:100064000CD006D000201AF4709561957F4F089546
:10007400F6F7909581959F4F0895AA1BBB1B51E1FC
:1000840007C0AA1FBB1FA617B70710F0A61BB70B04
:10009400881F991F5A95A9F780959095BC01CD01A9
:0400A400089508951E
:10020200A0E6B0E0E6EEF1E08CE190E00E9454005E
:0202120008954D
:1000B2000F931F932F93EF93FF93BF93BFB7BF93FA
:1000C200B0E0BBBB14E620E000917D00E02FF0E041
:1000D200E10FF21F008105BB00917C000BBB102FCA
:1000E200110F10937C0008E0011718F4B1E0B093EF
:1000F2007C0000917D00102F1F5F10937D0003E0B4
:10010200011718F4B0E0B0937D00BF91BFBFBF915B
:0C011200FF91EF912F911F910F91189514
:0201E6000D000A
:0201E800000015
:0401EA000000000011
:1001EE003F0006005B004F0066006D007D000700BB
:0401FE007F006F000F
:00000001FF
