:100000000C9426020C9400000C9400000C94000048
:100010000C9400000C9400000C9400000C94000060
:100020000C9400000C9400000C9400000C94000050
:100030000C9400000C9400000C9400000C94000040
:100040000C9400000C9400000C9400000C94000030
:040050000C9400000C
:10044C00BFE5BDBFB8E0BEBF0E9481022F92D6DED1
:10045C00B1E02B2E71DEB0E82B2E6EDEB0E4B9B914
:10046C00B0E0B0BD16DE26E013E10EEA0A95F1F716
:10047C001A95E1F72A95D1F700000000DCDF002384
:10048C00B1F10091600010916100A8014F5F5F4FC6
:10049C00009162001091630020DE8C01103009F491
:1004AC00003019F4B0E82B2E47DEBFDF00936B0051
:1004BC00202EE3DD24E213E800ED0A95F1F71A95FE
:1004CC00E1F72A95D1F700916200109163000F5F5C
:1004DC001F4F00936200109363000091690010910C
:1004EC006A000F5F1F4F0093690010936A00C6CF1C
:0404FC002F90FFCF6F
:10020800B0913200BF7BB0933200B0913B00BB7F0E
:10021800B0933B00B0913500BF77B0933500B091F3
:100228003500BF7BB0933500B0913500BF7DB093EA
:100238003500B0913500BF7EB0933500B0913100E4
:10024800B064B0933100B0913A00B460B0933A0012
:10025800B0913400B061B0933400B0913400B06212
:10026800B0933400B0913400B064B0933400B091CE
:100278003400B068B0933400F4DEF3DEF2DEB091FF
:100288003500B062B0933500B0913500B061B093DD
:100298003500B0913200B064B0933200D7DEB0912F
:1002A8003200BF7BB0933200DCDEB0913200B06424
:1002B800B0933200CBDEB0913200BF7BB0933200F6
:1002C800D0DEB0913200B064B0933200BFDEB0919E
:1002D8003200BF7BB0933200C4DEB0913500BF7EE0
:1002E800B0933500B0913200B064B0933200AEDE06
:1002F800B0913200BF7BB0933200B3DEB0913200D0
:10030800B064B0933200A2DEB0913200BF7BB093EC
:100318003200B0913500BF7DB0933500B091350003
:10032800B068B0933500B0913200B064B093320039
:100338008DDEB0913200BF7BB093320092DEB09177
:100348003500BF77B0933500B0913500B061B093F8
:100358003500B0913200B064B093320077DEB091CE
:100368003200BF7BB0933200B0913500BF7EB093AE
:100378003500B0913200B064B093320067DEB091BE
:100388003200BF7BB09332006CDEB0913200B064B3
:10039800B09332005BDEB0913200BF7BB093320085
:1003A800B0913500B061B0933500B0913200B064BF
:1003B800B09332004BDEB0913200BF7BB093320075
:1003C80050DEB0913500BF7EB0933500B091320059
:1003D800B064B09332003ADEB0913200BF7BB09384
:1003E8003200B0913500B068B0933500B091350057
:1003F800B064B0933500B0913500B062B093350069
:10040800B0913500B061B0933500B0913200B0645E
:10041800B09332001BDEB0913200BF7BB093320044
:0E04280020DEB0916800B160B09368000895C6
:0E006A0018E40DE60A95F1F71A95E1F70895EE
:0A00540003E00A95F1F7000008959B
:1001440027FAB0913500B7F9B093350026FAB0918B
:100154003500B6F9B093350025FAB0913500B5F9FC
:10016400B093350024FAB0913500B4F9B09335005A
:10017400B091680000903B00E894B0FF689402F8E6
:1001840000923B00B0913200B064B093320060DF63
:10019400B0913200BF7BB093320023FAB0913500A6
:1001A400B7F9B093350022FAB0913500B6F9B0939F
:1001B400350021FAB0913500B5F9B093350020FA35
:1001C400B0913500B4F9B0933500B0916800009057
:1001D4003B00E894B0FF689402F800923B00B091B1
:1001E4003200B064B093320033DFB0913200BF7B91
:1001F400B0933200B0916800B0FF02C034DF01C098
:040204002CDF08954E
:0C005E0006EA0A95F1F700000000089582
:0A0442000BB0002707FC0395089596
:0C043600E0916600F091670009950895C0
:040078000CB108952A
:0A007C000BB0002706FC0395089561
:10008600B0916800BE7FB093680059D0B091680007
:08009600B160B0936800089509
:0A013A0005900D920197E1F708957A
:1000E600C801BA0197FB092E07260AD077FD04D06E
:1000F6000CD006D000201AF4709561957F4F0895B4
:10010600F6F7909581959F4F0895AA1BBB1B51E169
:1001160007C0AA1FBB1FA617B70710F0A61BB70B71
:10012600881F991F5A95A9F780959095BC01CD0116
:04013600089508958B
:10009E00BFEFB0936400BFEFB0936500BCE3B093C5
:1000AE006600B0E0B0936700B1E2B0936C00B2E0CE
:1000BE00B0936D00BEE3B0936E00B0E0B0936F00EE
:1000CE00B1B3BE7FB1BBB1B3B260B1BB0AB108610F
:0800DE000AB9B6E8B0BD0895AF
:10050200A0E6B0E0E0E0F5E082E090E00E949D002D
:0205120008954A
:020500000400F5
:00000001FF
