:100000000C9457040C9400000C9400000C94000015
:100010000C9400000C9400000C9400000C94000060
:100020000C9400000C9400000C9400000C9421042B
:100030000C9400000C9400000C9400000C94000040
:100040000C9400000C9400000C9400000C94000030
:040050000C9400000C
:1008AE00BFE5BDBFB8E0BEBF0E949F042F923F922E
:1008BE004F92BFE0BABBB0E0BBBBBFEFB4BBB0E082
:1008CE00B5BBB0E0B0939400B0939500B0E0B09398
:1008DE009100B1E0B0939200B3E0B3BFBFB7B06880
:1008EE00BFBFB9B7B160B9BFB1E04B2EB8E32B2E85
:1008FE00B0E03B2E71DFB8DD4ADE4F903F902F9077
:02090E00FFCF19
:1007E600B42D31E0BB2319F0330FBA95E9F73093F6
:1007F6009300032F00950093900020928E00309274
:100806008F00122D232D1150204010939600209317
:100816009700E12FF22F0081032BE12FF22F0083A7
:10082600E0918E00F0918F001081009190000123DD
:0C083600E0918E00F0918F000083089587
:100476002F923F924F925F92BFEFB1BB20917200D5
:100486003091730009E010E0201731078CF50091D8
:100496007200109173009801220F331F00E610E0DE
:1004A600F901E00FF11F008102BB202EB0E03B2EC8
:1004B600C6DEB4E64B2EB0E05B2EB5E72B2EB5E0DC
:1004C6003B2EFBDE23E31BEB00EE0A95F1F71A95B4
:1004D600E1F72A95D1F70000000000917200109113
:1004E60073000F5F1F4F0093720010937300C6CF07
:1004F600B4E64B2EB0E05B2EB8EB2B2EB1E03B2ED4
:10050600DCDE0091720010917300015010400093E0
:10051600720010937300209172003091730000E016
:1005260010E0021713078CF500917200109173000A
:100536009801220F331F00E610E0F901E00FF11FCA
:10054600008102BB202EB0E03B2E79DEB4E64B2EB6
:10055600B0E05B2EB6E22B2EB5E03B2EAEDE23E3FB
:100566001BEB00EE0A95F1F71A95E1F72A95D1F7FC
:1005760000000000009172001091730001501040BD
:100586000093720010937300C6CF78CF5F904F90A0
:060596003F902F90089534
:1002440000E010E002151305C4F53F922F924AE036
:1002540050E0810162DF8C012F903F909801220FC2
:10026400331F04E710E0F901E00FF11F0191119130
:1002740000939400109395003F922F924AE050E02F
:1002840081014BDF8B012F903F90180128E830E06B
:1002940000918C0010918D00F801E20FF31F009182
:1002A4009400008300918C0010918D000F5F1F4F0C
:0C02B40000938C0010938D00C3CF0895C0
:10011E00C801BA0197FB092E07260AD077FD04D035
:10012E000CD006D000201AF4709561957F4F08957B
:10013E00F6F7909581959F4F0895AA1BBB1B51E131
:10014E0007C0AA1FBB1FA617B70710F0A61BB70B39
:10015E00881F991F5A95A9F780959095BC01CD01DE
:04016E000895089553
:1002C000CF93DF93CDB7DEB72497CDBFDEBF2196A6
:1002D000D1DE48EE53E060E070E0D1DEA10160E0E5
:1002E000762FFBDE8B019C01369527951795079598
:1002F00008831983BFDEA20160E0762FC0DE48814B
:10030000598160E0762F440F551F661F771FE5DE89
:100310008B019C01A801B9017F936F935F934F9369
:100320004AE050E008811981C4DE8C014F915F9151
:100330006F917F910883198300E010E020E030E0A6
:10034000041715072607370708F07DC0E0918E00D7
:10035000F0918F00108100919300012BE0918E00AD
:10036000F0918F0000838E01F80131960081002307
:1003700019F1B0E0BA83BB83342F452F562F672F76
:100380008E01F801319620810A811B810217B0E0AD
:100390001B0768F43F922F9222245CDE2F903F903F
:1003A0000A811B810F5F1F4F0A831B83E9CF762FC2
:1003B000652F542F432F00C0FE0100813F922F92E2
:1003C000202E48DE2F903F90E0918E00F0918F001C
:1003D0001081009190000123E0918E00F0918F0038
:1003E00000838E01F801319600810023D9F0B0E03E
:1003F000BA83BB838E01F801319620810A811B816B
:100400000217B0E01B0768F43F922F92222422DEED
:100410002F903F900A811B810F5F1F4F0A831B8320
:10042000E9CF00C0FE0100813F922F92202E12DE04
:100430002F903F908A019B01015010402040304096
:10044000A801B90179CFE0918E00F0918F00108161
:10045000009190000123E0918E00F0918F000083C5
:0C0460002396CDBFDEBFDF91CF91089541
:0A00740000E117E220E030E00895FB
:10005400022C022CB4E00B1A00E0001530F4B1E0DD
:100064000B1A000000000000F7CF00000000089504
:000074008C
:10007E00BB27AA279927882700FF04C0840F951F46
:10008E00A61FB71F440F551F661F771F369527955E
:10009E001795079589F730502040100769F79D0195
:0400AE008C01089524
:1000DA00C9019A01AB01B801A1E21A2EAA1BBB1BE6
:1000EA00FD010DC0AA1FBB1FEE1FFF1FA217B307FA
:1000FA00E407F50720F0A20BB30BE40BF50B661F20
:10010A00771F881F991F1A9469F7609570958095D3
:04011A00909508951F
:1000B200C801BA01AA1BBB1B51E107C0AA1FBB1F83
:1000C200A617B70710F0A61BB70B881F991F5A95E2
:0800D200A9F7809590950895AF
:10059C002F923F92BAE92B2EB1E03B2E3EDEBAE908
:1005AC002B2EB1E03B2EFDDDBDEC2B2EB0E03B2E17
:1005BC00E9DDB5E32B2EB3E03B2ED5DD2BE017E6C2
:1005CC000EE40A95F1F71A95E1F72A95D1F7BDECEF
:1005DC002B2EB0E03B2E12DEBDEC2B2EB0E03B2ED2
:1005EC000DDEB6E62B2EB0E03B2E08DEB6E62B2E4B
:1005FC00B0E03B2EF4DDBDEC2B2EB0E03B2E0DDE3F
:10060C00BDEC2B2EB0E03B2EF9DDBDEC2B2EB0E07B
:10061C003B2EF4DDB6E62B2EB0E03B2EEFDDB6E63E
:10062C002B2EB0E03B2EDBDDB6E62B2EB0E03B2EC6
:10063C00F4DD26E01DE208EA0A95F1F71A95E1F7D8
:10064C002A95D1F7B6E62B2EB0E03B2EAADDB6E606
:10065C002B2EB0E03B2E87DDB6E62B2EB0E03B2EEA
:10066C00AFDD26E01DE208EA0A95F1F71A95E1F7ED
:10067C002A95D1F7B6E62B2EB0E03B2E92DDB6E6EE
:10068C002B2EB0E03B2E6FDDB6E62B2EB0E03B2ED2
:10069C0097DD26E01DE208EA0A95F1F71A95E1F7D5
:1006AC002A95D1F7B6E62B2EB0E03B2E7ADDB6E6D6
:1006BC002B2EB0E03B2E57DDB6E62B2EB0E03B2EBA
:1006CC007FDD2AE217EA09E30A95F1F71A95E1F7BB
:1006DC002A95D1F70000BAE92B2EB1E03B2E9DDD17
:1006EC00BAE92B2EB1E03B2E5CDDBDEC2B2EB0E03D
:1006FC003B2E66DDB5E32B2EB3E03B2E34DD2BE039
:10070C0017E60EE40A95F1F71A95E1F72A95D1F759
:10071C00BAE92B2EB1E03B2E80DDBAE92B2EB1E0ED
:10072C003B2E3FDDBDEC2B2EB0E03B2E49DDB5E37F
:10073C002B2EB3E03B2E17DD2BE017E60EE40A95CB
:10074C00F1F71A95E1F72A95D1F7BDEC2B2EB0E015
:10075C003B2E54DDBDEC2B2EB0E03B2E4FDDB6E630
:10076C002B2EB0E03B2E4ADDB6E62B2EB0E03B2E16
:10077C0036DDBDEC2B2EB0E03B2E4FDDBDEC2B2E31
:10078C00B0E03B2E3BDDBDEC2B2EB0E03B2E36DD3E
:10079C00B6E62B2EB0E03B2E31DDB6E62B2EB0E0CC
:1007AC003B2E1DDDB6E62B2EB0E03B2E36DD26E0D3
:1007BC001DE208EA0A95F1F71A95E1F72A95D1F7A7
:1007CC00BDEC2B2EB0E03B2EFBDCBDEC2B2EB0E0B9
:0A07DC003B2EE7DC3F902F900895BC
:100226002F923F924F925F922101BCED2B2EB4E0AC
:0E0236003B2E43D05F904F903F902F90089545
:1001AE002F923F924F925F922101B0E22B2EB6E03A
:0E01BE003B2E7FD05F904F903F902F90089582
:100190002F923F924F925F922101B7EB2B2EB7E047
:0E01A0003B2E8ED05F904F903F902F90089591
:100172002F923F924F925F922101B8EB2B2EB6E065
:0E0182003B2E9DD05F904F903F902F900895A0
:100208002F923F924F925F922101B4E72B2EB5E0D7
:0E0218003B2E52D05F904F903F902F90089554
:1001EA002F923F924F925F922101B6E22B2EB5E0F9
:0E01FA003B2E61D05F904F903F902F90089564
:1001CC002F923F924F925F922101B9E42B2EB7E010
:0E01DC003B2E70D05F904F903F902F90089573
:0A046C0005900D920197E1F7089545
:10093E00A0E6B0E0E0E1F9E08EE290E00E9436023F
:02094E0008950A
:100842000F931F932F93EF93FF93BF93BFB7BF9362
:10085200B0E0BBBB18E820E000919100E02FF0E08F
:10086200E10FF21F008105BB009192000BBB102F1C
:10087200110F1093920008E0011718F4B1E0B09341
:10088200920000919100102F1F5F1093910003E0DE
:10089200011718F4B0E0B0939100BF91BFBFBF91B0
:0C08A200FF91EF912F911F910F9118957D
:100910000100050014005000C000A00028000A00DB
:020920000300D2
:020922000000D3
:100924003F0006005B004F0066006D007D0007007D
:040934007F006F00D1
:0409380000000000BB
:02093C000000B9
:00000001FF
