:100000000C945D040C9400000C9400000C9400000F
:100010000C9400000C9400000C9400000C94000060
:100020000C9400000C9400000C9400000C94270425
:100030000C9400000C9400000C9400000C94000040
:100040000C9400000C9400000C9400000C94000030
:040050000C9400000C
:1008BA00BFE5BDBFB8E0BEBF0E94A5042F923F921C
:1008CA004F92BFE0BABBB0E0BBBBBFEFB4BBB0E076
:1008DA00B5BBB0E0B0939600B0939700B0E0B09388
:1008EA009000B1E0B0939300B3E0B3BFBFB7B06874
:1008FA00BFBFB9B7B160B9BFB1E04B2EB8E32B2E79
:10090A00B0E03B2E71DFB2DD4ADE4F903F902F9070
:02091A00FFCF0D
:1007F200B42D31E0BB2319F0330FBA95E9F73093EA
:100802009100032F00950093920020928E00309267
:100812008F00122D232D115020401093940020930D
:100822009500E12FF22F0081032BE12FF22F00839D
:10083200E0918E00F0918F001081009192000123CF
:0C084200E0918E00F0918F00008308957B
:100476002F923F924F925F92BFEFB1BB20917200D5
:100486003091730009E010E020173107A4F50091C0
:100496007200109173009801220F331F00E610E0DE
:1004A600F901E00FF11F008102BB202EB0E03B2EC8
:1004B600C6DEB4E64B2EB0E05B2EB5E72B2EB5E0DC
:1004C6003B2EFBDE2DE01FEA07EB0A95F1F71A95A6
:1004D600E1F72A95D1F700000091720010917300A0
:1004E6000F5F1F4F0093720010937300B9B3B7FFED
:1004F60001C052C0C3CFB4E64B2EB0E05B2EB8EBC2
:100506002B2EB1E03B2ED9DE0091720010917300C4
:1005160001501040009372001093730020917200F6
:100526003091730000E010E002171307A4F5009164
:100536007200109173009801220F331F00E610E03D
:10054600F901E00FF11F008102BB202EB0E03B2E27
:1005560076DEB4E64B2EB0E05B2EB6E22B2EB5E08F
:100566003B2EABDE2DE01FEA07EB0A95F1F71A9555
:10057600E1F72A95D1F700000091720010917300FF
:10058600015010400093720010937300B9B3B7FF87
:1005960001C002C0C3CF72CF5F904F903F902F90A3
:0205A6000895B6
:1002440000E010E002151305C4F53F922F924AE036
:1002540050E0810162DF8C012F903F909801220FC2
:10026400331F0AE710E0F901E00FF11F019111912A
:1002740000939600109397003F922F924AE050E02B
:1002840081014BDF8B012F903F90180124E730E070
:100294000091780010917900F801E20FF31F0091AA
:1002A4009600008300917800109179000F5F1F4F32
:0C02B4000093780010937900C3CF0895E8
:10011E00C801BA0197FB092E07260AD077FD04D035
:10012E000CD006D000201AF4709561957F4F08957B
:10013E00F6F7909581959F4F0895AA1BBB1B51E131
:10014E0007C0AA1FBB1FA617B70710F0A61BB70B39
:10015E00881F991F5A95A9F780959095BC01CD01DE
:04016E000895089553
:1002C000CF93DF93CDB7DEB72497CDBFDEBF2196A6
:1002D000D1DE48EE53E060E070E0D1DEA10160E0E5
:1002E000762FFBDE8B019C01369527951795079598
:1002F00008831983BFDEA20160E0762FC0DE48814B
:10030000598160E0762F440F551F661F771FE5DE89
:100310008B019C01A801B9017F936F935F934F9369
:100320004AE050E008811981C4DE8C014F915F9151
:100330006F917F910883198300E010E020E030E0A6
:10034000041715072607370708F07DC0E0918E00D7
:10035000F0918F00108100919100012BE0918E00AF
:10036000F0918F0000838E01F80131960081002307
:1003700019F1B0E0BA83BB83342F452F562F672F76
:100380008E01F801319620810A811B810217B0E0AD
:100390001B0768F43F922F9222245CDE2F903F903F
:1003A0000A811B810F5F1F4F0A831B83E9CF762FC2
:1003B000652F542F432F00C0FE0100813F922F92E2
:1003C000202E48DE2F903F90E0918E00F0918F001C
:1003D0001081009192000123E0918E00F0918F0036
:1003E00000838E01F801319600810023D9F0B0E03E
:1003F000BA83BB838E01F801319620810A811B816B
:100400000217B0E01B0768F43F922F92222422DEED
:100410002F903F900A811B810F5F1F4F0A831B8320
:10042000E9CF00C0FE0100813F922F92202E12DE04
:100430002F903F908A019B01015010402040304096
:10044000A801B90179CFE0918E00F0918F00108161
:10045000009192000123E0918E00F0918F000083C3
:0C0460002396CDBFDEBFDF91CF91089541
:0A00740000E117E220E030E00895FB
:10005400022C022CB4E00B1A00E0001530F4B1E0DD
:100064000B1A000000000000F7CF00000000089504
:000074008C
:10007E00BB27AA279927882700FF04C0840F951F46
:10008E00A61FB71F440F551F661F771F369527955E
:10009E001795079589F730502040100769F79D0195
:0400AE008C01089524
:1000DA00C9019A01AB01B801A1E21A2EAA1BBB1BE6
:1000EA00FD010DC0AA1FBB1FEE1FFF1FA217B307FA
:1000FA00E407F50720F0A20BB30BE40BF50B661F20
:10010A00771F881F991F1A9469F7609570958095D3
:04011A00909508951F
:1000B200C801BA01AA1BBB1B51E107C0AA1FBB1F83
:1000C200A617B70710F0A61BB70B881F991F5A95E2
:0800D200A9F7809590950895AF
:1005A8002F923F92BAE92B2EB1E03B2E38DEBAE902
:1005B8002B2EB1E03B2EF7DDBDEC2B2EB0E03B2E11
:1005C800E3DDB5E32B2EB3E03B2ECFDD2BE017E6C2
:1005D8000EE40A95F1F71A95E1F72A95D1F7BDECE3
:1005E8002B2EB0E03B2E0CDEBDEC2B2EB0E03B2ECC
:1005F80007DEB6E62B2EB0E03B2E02DEB6E62B2E4B
:10060800B0E03B2EEEDDBDEC2B2EB0E03B2E07DE3E
:10061800BDEC2B2EB0E03B2EF3DDBDEC2B2EB0E075
:100628003B2EEEDDB6E62B2EB0E03B2EE9DDB6E63E
:100638002B2EB0E03B2ED5DDB6E62B2EB0E03B2EC0
:10064800EEDD26E01DE208EA0A95F1F71A95E1F7D2
:100658002A95D1F7B6E62B2EB0E03B2EA4DDB6E600
:100668002B2EB0E03B2E81DDB6E62B2EB0E03B2EE4
:10067800A9DD26E01DE208EA0A95F1F71A95E1F7E7
:100688002A95D1F7B6E62B2EB0E03B2E8CDDB6E6E8
:100698002B2EB0E03B2E69DDB6E62B2EB0E03B2ECC
:1006A80091DD26E01DE208EA0A95F1F71A95E1F7CF
:1006B8002A95D1F7B6E62B2EB0E03B2E74DDB6E6D0
:1006C8002B2EB0E03B2E51DDB6E62B2EB0E03B2EB4
:1006D80079DD2AE217EA09E30A95F1F71A95E1F7B5
:1006E8002A95D1F70000BAE92B2EB1E03B2E97DD11
:1006F800BAE92B2EB1E03B2E56DDBDEC2B2EB0E037
:100708003B2E60DDB5E32B2EB3E03B2E2EDD2BE038
:1007180017E60EE40A95F1F71A95E1F72A95D1F74D
:10072800BAE92B2EB1E03B2E7ADDBAE92B2EB1E0E7
:100738003B2E39DDBDEC2B2EB0E03B2E43DDB5E37F
:100748002B2EB3E03B2E11DD2BE017E60EE40A95C5
:10075800F1F71A95E1F72A95D1F7BDEC2B2EB0E009
:100768003B2E4EDDBDEC2B2EB0E03B2E49DDB6E630
:100778002B2EB0E03B2E44DDB6E62B2EB0E03B2E10
:1007880030DDBDEC2B2EB0E03B2E49DDBDEC2B2E31
:10079800B0E03B2E35DDBDEC2B2EB0E03B2E30DD3E
:1007A800B6E62B2EB0E03B2E2BDDB6E62B2EB0E0C6
:1007B8003B2E17DDB6E62B2EB0E03B2E30DD26E0D3
:1007C8001DE208EA0A95F1F71A95E1F72A95D1F79B
:1007D800BDEC2B2EB0E03B2EF5DCBDEC2B2EB0E0B3
:0A07E8003B2EE1DC3F902F900895B6
:100226002F923F924F925F922101BCED2B2EB4E0AC
:0E0236003B2E43D05F904F903F902F90089545
:1001AE002F923F924F925F922101B0E22B2EB6E03A
:0E01BE003B2E7FD05F904F903F902F90089582
:100190002F923F924F925F922101B7EB2B2EB7E047
:0E01A0003B2E8ED05F904F903F902F90089591
:100172002F923F924F925F922101B8EB2B2EB6E065
:0E0182003B2E9DD05F904F903F902F900895A0
:100208002F923F924F925F922101B4E72B2EB5E0D7
:0E0218003B2E52D05F904F903F902F90089554
:1001EA002F923F924F925F922101B6E22B2EB5E0F9
:0E01FA003B2E61D05F904F903F902F90089564
:1001CC002F923F924F925F922101B9E42B2EB7E010
:0E01DC003B2E70D05F904F903F902F90089573
:0A046C0005900D920197E1F7089545
:10094A00A0E6B0E0ECE1F9E08EE290E00E94360227
:02095A000895FE
:10084E000F931F932F93EF93FF93BF93BFB7BF9356
:10085E00B0E0BBBB14E720E000919000E02FF0E089
:10086E00E10FF21F008105BB009193000BBB102F0F
:10087E00110F1093930008E0011718F4B1E0B09334
:10088E00930000919000102F1F5F1093900003E0D3
:10089E00011718F4B0E0B0939000BF91BFBFBF91A5
:0C08AE00FF91EF912F911F910F91189571
:10091C000100050014005000C000A00028000A00CF
:02092C000300C6
:02092E000000C7
:0409300000000000C3
:020934000000C1
:100936003F0006005B004F0066006D007D0007006B
:040946007F006F00BF
:00000001FF
