:100000000C94BA010C9400000C9400000C940000B5
:100010000C9400000C9400000C9400000C94000060
:100020000C9400000C9400000C9400000C94000050
:100030000C9400000C9400000C9400000C94000040
:100040000C9400000C9400000C9400000C94000030
:040050000C9400000C
:10037400BFE5BDBFB8E0BEBF2F92E3DEBCE02B2ECD
:060384007EDE2F90FFCF8A
:10014600B0913200BF7BB0933200B0913B00BB7FD1
:10015600B0933B00B0913500BF77B0933500B091B6
:100166003500BF7BB0933500B0913500BF7DB093AD
:100176003500B0913500BF7EB0933500B0913100A7
:10018600B064B0933100B0913A00B460B0933A00D5
:10019600B0913400B061B0933400B0913400B062D5
:1001A600B0933400B0913400B064B0933400B09191
:1001B6003400B068B093340055DF54DF53DFB0919C
:1001C6003500B062B0933500B0913500B061B093A0
:1001D6003500B0913200B064B093320038DFB09190
:1001E6003200BF7BB09332003DDFB0913200B06485
:1001F600B09332002CDFB0913200BF7BB093320057
:1002060031DFB0913200B064B093320020DFB0919C
:100216003200BF7BB093320025DFB0913500BF7E40
:10022600B0933500B0913200B064B09332000FDF66
:10023600B0913200BF7BB093320014DFB091320030
:10024600B064B093320003DFB0913200BF7BB0934D
:100256003200B0913500BF7DB0933500B0913500C6
:10026600B068B0933500B0913200B064B0933200FC
:10027600EEDEB0913200BF7BB0933200F3DEB09178
:100286003500BF77B0933500B0913500B061B093BB
:100296003500B0913200B064B0933200D8DEB09130
:1002A6003200BF7BB0933200B0913500BF7EB09371
:1002B6003500B0913200B064B0933200C8DEB09120
:1002C6003200BF7BB0933200CDDEB0913200B06415
:1002D600B0933200BCDEB0913200BF7BB0933200E7
:1002E600B0913500B061B0933500B0913200B06482
:1002F600B0933200ACDEB0913200BF7BB0933200D7
:10030600B1DEB0913500BF7EB0933500B0913200BA
:10031600B064B09332009BDEB0913200BF7BB093E5
:100326003200B0913500B068B0933500B091350019
:10033600B064B0933500B0913500B062B09335002B
:10034600B0913500B061B0933500B0913200B06421
:10035600B09332007CDEB0913200BF7BB0933200A6
:0E03660081DEB0916000B160B0936000089538
:0E006A0018E40DE60A95F1F71A95E1F70895EE
:0A00540003E00A95F1F7000008959B
:1000820027FAB0913500B7F9B093350026FAB0914E
:100092003500B6F9B093350025FAB0913500B5F9BF
:1000A200B093350024FAB0913500B4F9B09335001D
:1000B200B091600000903B00E894B0FF689402F8B1
:1000C20000923B00B0913200B064B0933200C1DFC5
:1000D200B0913200BF7BB093320023FAB091350069
:1000E200B7F9B093350022FAB0913500B6F9B09362
:1000F200350021FAB0913500B5F9B093350020FAF8
:10010200B0913500B4F9B0933500B0916000009021
:100112003B00E894B0FF689402F800923B00B09173
:100122003200B064B093320094DFB0913200BF7BF2
:10013200B0933200B0916000B0FF02C095DF01C001
:040142008DDF0895B0
:0C005E0006EA0A95F1F700000000089582
:0A00780005900D920197E1F708953D
:00000001FF
