:100000000C94ED030C9400000C9400000C94000080
:100010000C9400000C9400000C9400000C94000060
:100020000C9400000C9400000C9400000C94000050
:100030000C9400000C9400000C9400000C94000040
:100040000C9400000C9400000C9400000C94000030
:040050000C9400000C
:1007DA00BFE5BDBFB8E0BEBF0E945C04B0E0B7BBD6
:0E07EA00BFEFB4BBB0E0B8BBDCDEBCDEFFCFBF
:1005AC00B0913200BF7BB0933200B0913B00BB7F67
:1005BC00B0933B00B0913500BF77B0933500B0914C
:1005CC003500BF7BB0933500B0913500BF7DB09343
:1005DC003500B0913500BF7EB0933500B09131003D
:1005EC00B064B0933100B0913A00B460B0933A006B
:1005FC00B0913400B061B0933400B0913400B0626B
:10060C00B0933400B0913400B064B0933400B09126
:10061C003400B068B093340098DF97DF96DFB09168
:10062C003500B062B0933500B0913500B061B09335
:10063C003500B0913200B064B09332008DDFB091D0
:10064C003200BF7BB093320080DFB0913200B064D7
:10065C00B093320081DFB0913200BF7BB093320097
:10066C0074DFB0913200B064B093320075DFB0919A
:10067C003200BF7BB093320068DFB0913500BF7E93
:10068C00B0933500B0913200B064B093320064DFA7
:10069C00B0913200BF7BB093320057DFB091320083
:1006AC00B064B093320058DFB0913200BF7BB0938E
:1006BC003200B0913500BF7DB0933500B09135005C
:1006CC00B068B0933500B0913200B064B093320092
:1006DC0043DFB0913200BF7BB093320036DFB09174
:1006EC003500BF77B0933500B0913500B061B09351
:1006FC003500B0913200B064B09332002DDFB09170
:10070C003200BF7BB0933200B0913500BF7EB09306
:10071C003500B0913200B064B09332001DDFB0915F
:10072C003200BF7BB093320010DFB0913200B06466
:10073C00B093320011DFB0913200BF7BB093320026
:10074C00B0913500B061B0933500B0913200B06417
:10075C00B093320001DFB0913200BF7BB093320016
:10076C00F4DEB0913500BF7EB0933500B09132000D
:10077C00B064B0933200F0DEB0913200BF7BB09326
:10078C003200B0913500B068B0933500B0913500AF
:10079C00B064B0933500B0913500B062B0933500C1
:1007AC00B0913500B061B0933500B0913200B064B7
:1007BC00B0933200D1DEB0913200BF7BB0933200E7
:0E07CC00C4DEB0912101B160B0932101089507
:0E05560018E40DE60A95F1F71A95E1F70895FD
:0A05640003E00A95F1F70000089586
:10056E00B6B3B7FF01C023DFB6B3B7FF01C0FCCFF0
:10057E00B6B3B6FF01C055DFB6B3B6FF01C0FCCFB0
:10058E00B6B3B5FF01C0D6DFB6B3B5FF01C0FCCF21
:04059E00E7CF089506
:1003BC00B6B3B7FF01C0DEDFB6B3B7FF01C0FCCFE9
:1003CC00B6B3B6FF01C037DFB6B3B6FF01C0FCCF82
:1003DC00B6B3B5FF01C011DFB6B3B5FF01C0FCCF9A
:1003EC00B6B3B4FF01C0EBDEB6B3B4FF01C0FCCFB3
:1003FC00B6B3B3FF01C0A0DFB6B3B3FF01C0FCCFEF
:10040C00B6B3B2FF01C04FDFB6B3B2FF01C0FCCF31
:10041C00B6B3B0FF01C005C0B6B3B0FF01C0FCCF8E
:04042C00C7CF089599
:100380002F923F924F925F92B1E02B2E75DEB9EF24
:100390004B2EB0E05B2EB2E03B2EB1E02B2ECEDE3A
:1003A000BFED4B2EB0E05B2EB4E03B2EB2E02B2E27
:0C03B000C5DE5F904F903F902F900895A5
:1000780027FAB0913500B7F9B093350026FAB09158
:100088003500B6F9B093350025FAB0913500B5F9C9
:10009800B093350024FAB0913500B4F9B093350027
:1000A800B091210100903B00E894B0FF689402F8F9
:1000B80000923B00B0913200B064B09332004ED24F
:1000C800B0913200BF7BB093320023FAB091350073
:1000D800B7F9B093350022FAB0913500B6F9B0936C
:1000E800350021FAB0913500B5F9B093350020FA02
:1000F800B0913500B4F9B0933500B091210100906A
:100108003B00E894B0FF689402F800923B00B0917D
:100118003200B064B093320021D2B0913200BF7B7C
:10012800B0933200B0912101B0FF02C010D201C0DB
:040138008DDF0895BA
:0C00540006EA0A95F1F70000000008958C
:10013C002F920FC0B0E82B2E19C0B0EC2B2E16C08E
:10014C00B4E92B2E13C0B4ED2B2E10C0B0E82B2E1F
:10015C000DC0B1E02B1671F3B2E02B1671F3B3E0C6
:10016C002B1671F3B4E02B1671F3F0CF032D015065
:10017C00020D202E202E7ADFB0912101BE7FB0938C
:10018C00210110E0E12FF0E0E40DF51D00810023CA
:10019C0079F0E12FF0E0E40DF51D00811F932F9213
:1001AC00202E58DF2F901F91012F0F5F102FEACFB9
:0E01BC00B0912101B160B09321012F90089500
:10006000B0912101BE7FB093210106D0B091210152
:08007000B160B0932101089575
:100242002F923F924F925F92B1E02B2E14DFBDEBC3
:100252004B2EB0E05B2EB4E03B2EB1E02B2E6DDFD7
:10026200B2EB4B2EB0E05B2EB4E03B2EB2E02B2E75
:0C02720064DF5F904F903F902F90089544
:100206002F923F924F925F92B1E02B2E32DFB2EAED
:100216004B2EB0E05B2EB1E03B2EB1E02B2E8BDFF8
:10022600B3E94B2EB0E05B2EB1E03B2EB2E02B2EB5
:0C02360082DF5F904F903F902F90089562
:1001CA002F923F924F925F92B1E02B2E50DFB7E011
:1001DA004B2EB1E05B2EB1E03B2EB1E02B2EA9DF16
:1001EA00B7E14B2EB1E05B2EB4E03B2EB2E02B2EF2
:0C01FA00A0DF5F904F903F902F90089581
:100344002F923F924F925F92B1E02B2E93DEBFE645
:100354004B2EB0E05B2EB1E03B2EB1E02B2EECDE59
:10036400B0E64B2EB0E05B2EB1E03B2EB2E02B2E7C
:0C037400E3DE5F904F903F902F900895C3
:1002B2002F923F924F925F92B1E02B2EDCDEBAEE8C
:1002C2004B2EB0E05B2EB1E03B2EB1E02B2E35DFA2
:1002D200B5ED4B2EB0E05B2EB1E03B2EB2E02B2E03
:1002E2002CDF23E31BEB00EE0A95F1F71A95E1F7F9
:1002F2002A95D1F700000000B6B3B0FF01C01CC0C0
:10030200B1E02B2EB8DEB4EC4B2EB0E05B2EB1E0A8
:100312003B2EB1E02B2E11DF23E31BEB00EE0A95FF
:10032200F1F71A95E1F72A95D1F700000000B6B36C
:10033200B0FF01C001C0C0CF5F904F903F902F909F
:0203420008951C
:100430002F923F924F925F9200917F001091800027
:1004400000931F01109320010093240110932501B4
:10045000B1E02B2E11DEB0E0B0932201B093230166
:1004600020912201309123010AE010E0201731078A
:100470000CF059C000912201109123019801220F24
:10048000331F0FE710E0F901E00FF11F21913191C7
:1004900000911F01109120010217130794F400919D
:1004A0002201109123019801220F331F0FE710E062
:1004B000F901E00FF11F0191119100931F011093B9
:1004C000200100912201109123019801220F331F76
:1004D0000FE710E0F901E00FF11F21913191009138
:1004E0002401109125012017310794F40091220175
:1004F000109123019801220F331F0FE710E0F9013B
:10050000E00FF11F01911191009324011093250137
:1005100000912201109123010F5F1F4F00932201D0
:10052000109323019DCFB9EF4B2EB0E05B2EB2E0CC
:100530003B2EB1E02B2E02DE5F904F903F902F902C
:0205400008951C
:100542002F923F92B4EF2B2EB1E03B2E97DE3F90DD
:040552002F90089549
:10027E0010E0E12FF0E0E20DF31D0081002389F084
:10028E00E12FF0E0E20DF31D00811F933F922F92BC
:10029E00202EDFDE2F903F901F91012F0F5F102F2A
:0402AE00E8CF0895F8
:0A05A20005900D920197E1F708950E
:1008B800A0E6B0E0E8EFF7E08FEB90E00E94D1020D
:0208C800089591
:0F07F800436F6D702E204D616368696E657300ED
:10080700496E666F726D617469637320616E64000F
:10081700090049003E00300037005D0028000C0049
:0408270020004A0063
:0F082B005975676F2D5A617061646E6179610054
:10083A005465706C6979205374616E2073742E004C
:0B084A0031352E31302E3230323100BB
:0708550048656C6C6F210087
:10085C0053797374656D7320616E64204E65747387
:01086C00008B
:0A086D00436F6D706C6578657300D1
:0B08770030342E30392E32303030008B
:0F088200436F6D702E206D616368696E65730042
:0E089100556C79616E6F7620412E20492E0045
:10089F002332333B204D6963726F70726F632E008A
:0808AF0073797374656D730029
:00000001FF
